:020000040000FA
:100000000C945D000C9485000C9485000C94850084
:100010000C9485000C9485000C9485000C9485004C
:100020000C9485000C9485000C9485000C9485003C
:100030000C9485000C9485000C9485000C9485002C
:100040000C94EC050C9485000C94BA050C94940562
:100050000C9485000C9485000C9485000C9485000C
:100060000C9485000C9485000000000024002700FB
:100070002A0000000000250028002B0004040404CE
:100080000404040402020202020203030303030342
:10009000010204081020408001020408102001021F
:1000A00004081020000000080002010000030407FB
:1000B0000000000000000000360611241FBECFEF34
:1000C000D8E0DEBFCDBF12E0A0E0B1E0EEE1F0E2AB
:1000D00002C005900D92A831B107D9F722E0A8E13E
:1000E000B2E001C01D92A03FB207E1F710E0CDE5FC
:1000F000D0E004C02197FE010E940710CC35D10743
:10010000C9F70E9480060C940D100C940000AF9269
:10011000BF92CF92DF92EF92FF920F931F93CF93F4
:10012000DF936C017B018B01040F151FEB015E0156
:10013000AE18BF08C017D10759F06991D601ED91EB
:10014000FC910190F081E02DC6010995892B79F78A
:10015000C501DF91CF911F910F91FF90EF90DF903C
:10016000CF90BF90AF900895FC01538D448D252F03
:1001700030E0842F90E0821B930B541710F0CF9641
:10018000089501970895FC01918D828D981761F073
:10019000A28DAE0FBF2FB11D5D968C91928D9F5F8A
:1001A0009F73928F90E008958FEF9FEF0895FC0169
:1001B000918D828D981731F0828DE80FF11D858D1C
:1001C00090E008958FEF9FEF0895FC01918D228DAF
:1001D000892F90E0805C9F4F821B91098F73992734
:1001E00008958BE392E00E94E50021E0892B09F459
:1001F00020E0822F089580E090E0892B29F00E9472
:10020000F10081110C9400000895FC01A48DA80F49
:10021000B92FB11DA35ABF4F2C91848D90E0019648
:100220008F739927848FA689B7892C93A089B18968
:100230008C91837080648C93938D848D981306C009
:100240000288F389E02D80818F7D80830895EF926D
:10025000FF920F931F93CF93DF93EC0181E0888F80
:100260009B8D8C8D98131AC0E889F989808185FF50
:1002700015C09FB7F894EE89FF896083E889F989F2
:1002800080818370806480839FBF81E090E0DF91F4
:10029000CF911F910F91FF90EF900895F62E0B8D47
:1002A00010E00F5F1F4F0F731127E02E8C8D8E1102
:1002B0000CC00FB607FCFACFE889F989808185FF69
:1002C000F5CFCE010E940501F1CFEB8DEC0FFD2F94
:1002D000F11DE35AFF4FF0829FB7F8940B8FEA8924
:1002E000FB8980818062CFCFCF93DF93EC01888D33
:1002F0008823B9F0AA89BB89E889F9898C9185FDA1
:1003000003C0808186FD0DC00FB607FCF7CF8C912E
:1003100085FFF2CF808185FFEDCFCE010E940501E0
:10032000E9CFDF91CF91089590E0FC01EC55FF4FAC
:100330002491FC01E057FF4F3491FC01E458FF4F3A
:10034000E491EE23C9F0222339F0233001F1A8F41F
:10035000213019F1223029F1F0E0EE0FFF1FEE58A5
:10036000FF4FA591B4918FB7F894EC91611126C01D
:1003700030953E233C938FBF08952730A9F0283055
:10038000C9F0243049F7809180008F7D03C08091AF
:1003900080008F7780938000DFCF84B58F7784BD16
:1003A000DBCF84B58F7DFBCF8091B0008F778093BA
:1003B000B000D2CF8091B0008F7DF9CF3E2BDACF45
:1003C000CF93DF9390E0FC01E057FF4F24918458D6
:1003D0009F4FFC0184918823D1F090E0880F991FF2
:1003E000FC01E859FF4FA591B491FC01EE58FF4F75
:1003F000C591D49161110EC09FB7F8948C91E22FF2
:10040000E0958E238C932881E223E8839FBFDF91C0
:10041000CF9108958FB7F894EC91E22BEC938FBFB6
:10042000F6CF1F93CF93DF93182FEB0161E00E946B
:10043000E001209739F460E0812FDF91CF911F9187
:100440000C949401CF3FD10511F461E0F5CFE12F79
:10045000F0E0EC55FF4FE491E33031F140F4E1304E
:10046000B1F0E230E1F0C038D1057CF7E4CFE730FD
:1004700029F1E83059F1E430B1F7809180008062D1
:1004800080938000D0938B00C0938A0004C084B511
:10049000806884BDC7BDDF91CF911F91089584B559
:1004A000806284BDC8BDF7CF809180008068809352
:1004B0008000D0938900C0938800EDCF8091B00078
:1004C00080688093B000C093B300E5CF8091B00006
:1004D00080628093B000C093B400DDCF8E50806402
:1004E00080937C0080917A00806480937A00809170
:1004F0007A0086FDFCCF8091780090917900089574
:100500003FB7F8948091190290911A02A0911B02B2
:10051000B0911C0226B5A89B05C02F3F19F001968B
:10052000A11DB11D3FBFBA2FA92F982F8827BC014D
:10053000CD01620F711D811D911D42E0660F771F75
:10054000881F991F4A95D1F708958F929F92AF9275
:10055000BF92CF92DF92EF92FF924B015C010E941B
:1005600080026B017C010E9480026C197D098E095A
:100570009F09683E734081059105A8F321E0821A26
:100580009108A108B10888EEC80E83E0D81EE11CCE
:10059000F11C81149104A104B10429F7FF90EF909C
:1005A000DF90CF90BF90AF909F908F900895089567
:1005B00090E080E00895FC0101900020E9F7319778
:1005C000AF01481B590BBC0188ED92E00C948700E9
:1005D0008F929F92AF92BF920F931F93CF93DF930F
:1005E000CDB7DEB7A1970FB6F894DEBF0FBECDBF73
:1005F00019A2423008F44AE08E010F5D1F4F842E8D
:10060000912CB12CA12CA50194010E948C0DE62FF8
:10061000B901CA01EA30F4F4E05DD801EE938D012E
:10062000232B242B252B79F790E080E0109719F0ED
:10063000CD010E94DB02A1960FB6F894DEBF0FBE7B
:10064000CDBFDF91CF911F910F91BF90AF909F9041
:100650008F900895E95CE1CF0C94DB02CF93DF9398
:10066000EC0160E08E810E94940161E08E810E9425
:10067000940160E08E810E9494018BE891E00197E3
:10068000F1F7DF91CF910895CF92DF92EF92FF9231
:100690000F931F93CF93DF936C017C0187E0E80EEB
:1006A000F11CD0E0C0E0062F10E0B8010C2E02C013
:1006B000759567950A94E2F76170F70181917F0162
:1006C0000E9494012196C430D10579F7C601DF91CB
:1006D000CF911F910F91FF90EF90DF90CF900C94EE
:1006E0002E03CF92DF92EF92FF920F931F93CF933F
:1006F000DF93EC01F62E642F8C810E9494018D8192
:100700008F3F19F060E00E9494010F2D10E08F855B
:1007100084FF25C06E0187E0C80ED11CF12CE12CAE
:10072000B8010E2C02C0759567950A94E2F76170C6
:10073000F60181916F010E949401FFEFEF1AFF0A09
:1007400088E0E816F10461F7CE01DF91CF911F91A7
:100750000F91FF90EF90DF90CF900C942E03B80193
:1007600084E0759567958A95E1F7CE010E94440370
:100770006F2DCE01DF91CF911F910F91FF90EF90E0
:10078000DF90CF900C94440340E0682F88ED92E016
:100790000C94710381E00E94C4038BE39FE10197F5
:1007A000F1F70895CF93DF93823029F49091E70217
:1007B00098609093E7028093EB021092EC0280E441
:1007C0008093ED0280E18093EE0280E58093EF025A
:1007D00061E08091DC020E94E0018091DD028F3FA8
:1007E00019F061E00E94E00161E08091DE020E9468
:1007F000E001C8EDD2E09E01285D32408091E70221
:1008000084FD0BC084E090E021962817390744F45A
:1008100061E08E810E94E001EECF88E090E0F4CFAD
:100820008BE39DE00197F1F760E08091DC020E948C
:10083000940160E08091DE020E9494018091DD02CB
:100840008F3F19F060E00E9494018091E70284FDDF
:1008500034C063E088ED92E00E944403CBE4D6E428
:10086000CE010197F1F763E088ED92E00E94440326
:100870002197F1F763E088ED92E00E94440383E55D
:1008800092E00197F1F762E088ED92E00E94440364
:100890008091E70280620E94C40384E08093E802B2
:1008A0008CE00E94C4030E94CA0382E08093E902A4
:1008B00086E0DF91CF910C94C40380620E94C40350
:1008C0008BE496E40197F1F78091E70280620E9441
:1008D000C40383E592E00197F1F78091E70280621B
:1008E0000E94C403D5CF9091EB02691710F06FEF0F
:1008F000690FE62FF0E0E852FD4F9489890F806878
:100900000C94C40341E00E94710381E090E00895DB
:10091000CF92DF92EF92FF926C01990FEE08FF08E1
:100920006A307105C9F44AE0F7FE17C041E06DE294
:1009300088ED92E00E94710366277727CB016C193E
:100940007D098E099F094AE00E94E8020196FF9006
:10095000EF90DF90CF900895462FC701B601FF902A
:10096000EF90DF90CF900C94E8024F925F926F92DD
:100970007F928F929F92AF92BF92CF92DF92EF922F
:10098000FF920F931F93CF936B017C01B42EAC01A8
:100990009B010E94FB0F882399F086E391E0CF91A1
:1009A0001F910F91FF90EF90DF90CF90BF90AF908D
:1009B0009F908F907F906F905F904F900C94DB0290
:1009C00026013701E89477F82FEF3FEF4FE75FE715
:1009D000C301B2010E94FB0F81110DC02FEF3FEF49
:1009E0004FE75FE7C301B2010E942A0E18161CF4FC
:1009F0008AE391E0D4CF2FEF3FEF4FE75FE4C701E9
:100A0000B6010E94890F18161CF48EE391E0C7CF3F
:100A10002FEF3FEF4FE75FECC701B6010E942A0EB0
:100A200087FDF3CF20E030E0A901C701B6010E94A5
:100A30002A0E10E000E087FF0CC041E06DE288ED77
:100A400092E00E947103F7FAF094F7F8F09401E055
:100A500010E0CB2DA12C60E070E080E09FE3AB14B0
:100A600040F420E030E040E251E40E942F0EA394D5
:100A7000F6CFA70196010E94BE0D2B013C010E94FA
:100A8000A80E6B017C014AE00E94E802080F191FC2
:100A9000BB20C9F1C701B6010E94D70E9B01AC0172
:100AA000C301B2010E94BD0D4B015C0141E06EE249
:100AB00088ED92E00E9471030F5F1F4FC15018F143
:100AC00020E030E040E251E4C501B4010E948E0F05
:100AD0002B013C010E94A80E4B01B12CA12C4AE035
:100AE000C501B4010E94E802080F191FC501B40135
:100AF0000E94D70E9B01AC01C301B2010E94BD0D43
:100B00004B015C01DBCFC801CF911F910F91FF908A
:100B1000EF90DF90CF90BF90AF909F908F907F909D
:100B20006F905F904F9008951F920F920FB60F92A3
:100B300011242F933F934F935F936F937F938F93E2
:100B40009F93AF93BF93EF93FF938BE392E00E9449
:100B50000501FF91EF91BF91AF919F918F917F918F
:100B60006F915F914F913F912F910F900FBE0F901A
:100B70001F9018951F920F920FB60F9211242F936A
:100B80008F939F93EF93FF93E0914B02F0914C0270
:100B90008081E0915102F091520282FD1BC0908150
:100BA000809154028F5F8F7320915502821741F01C
:100BB000E0915402F0E0E55CFD4F958F8093540284
:100BC000FF91EF919F918F912F910F900FBE0F90FA
:100BD0001F9018958081F4CF1F920F920FB60F923D
:100BE00011242F933F938F939F93AF93BF93809143
:100BF0001D0290911E02A0911F02B091200230911F
:100C0000180223E0230F2D3758F50196A11DB11DC1
:100C10002093180280931D0290931E02A0931F023E
:100C2000B09320028091190290911A02A0911B02A8
:100C3000B0911C020196A11DB11D809319029093E1
:100C40001A02A0931B02B0931C02BF91AF919F9117
:100C50008F913F912F910F900FBE0F901F9018957D
:100C600026E8230F0296A11DB11DD2CFEBE3F2E0DF
:100C70001382128288EE93E0A0E0B0E08483958333
:100C8000A683B7838CE191E09183808385EC90E02B
:100C90009587848784EC90E09787868780EC90E046
:100CA000918B808B81EC90E0938B828B82EC90E037
:100CB000958B848B86EC90E0978B868B118E128EB1
:100CC000138E148EE8EDF2E0138212828EE291E030
:100CD000918380838DE084838FEF85838CE086838E
:100CE0008BE087838AE0808789E0818788E082873C
:100CF0001386148615861686178681E00C94D20317
:100D0000CF93DF93CDB7DEB72A970FB6F894DEBF47
:100D10000FBECDBF789484B5826084BD84B58160F8
:100D200084BD85B5826085BD85B5816085BD8091B6
:100D30006E00816080936E0010928100809181002E
:100D40008260809381008091810081608093810026
:100D5000809180008160809380008091B1008460E8
:100D60008093B1008091B00081608093B000809149
:100D70007A00846080937A0080917A008260809308
:100D80007A0080917A00816080937A0080917A0065
:100D9000806880937A001092C10082E00E94D203A2
:100DA00082E491E00E942C0360ED77E080E090E027
:100DB0000E94A5020E94CA0360E08EE00E94E0014A
:100DC00060E08FE00E94E00161E084E00E94E001C9
:100DD00061E083E00E94E00161E085E00E94E001C3
:100DE00061E086E00E94E001E0914B02F0914C024C
:100DF00082E08083E0914702F09148021082E09106
:100E00004902F0914A028FEC808310925302E091E4
:100E10004F02F091500286E08083E0914D02F09104
:100E20004E02808180618083E0914D02F0914E02FC
:100E3000808188608083E0914D02F0914E02808134
:100E400080688083E0914D02F0914E0280818F7D19
:100E500080838FB7F894C0901D02D0901E02E0905E
:100E60001F02F09020028FBF8FB7F89420911D02CF
:100E700030911E0240911F02509120022F8338872B
:100E800049875A878FBF8091370290913802A0918D
:100E90003902B0913A02A7019601281B390B4A0B7F
:100EA0005B0BDA01C901883E9340A105B10508F446
:100EB00057C1C0923702D0923802E0923902F092C4
:100EC0003A028EE00E946E028C018FE00E946E0258
:100ED0009C838B83B801110F880B990B0E94D90E4C
:100EE00020E030E040E054E40E94BD0D20E030E01E
:100EF0004AE754E40E948E0F2AE038E240EA5BE3BE
:100F00000E948E0F20E030E044E852E40E942F0E51
:100F10004B015C014B815C81BA01550F880B990B29
:100F20000E94D90E20E030E040E054E40E94BD0D64
:100F300020E030E04AE754E40E948E0F2AE038E2D5
:100F400040EA5BE30E948E0F20E030E044E852E488
:100F50000E942F0E6B837C838D839E8320E030E084
:100F60004AE754E4C501B4010E942F0E20913302D8
:100F70003091340240913502509136020E94BE0DEC
:100F80002B013C0120E030E046E954E40E94890F47
:100F900018160CF4D9C34092330250923402609276
:100FA00035027092360220E030E04AE754E46B816B
:100FB0007C818D819E810E942F0E20912F02309185
:100FC000300240913102509132020E94BE0D2B013D
:100FD0003C0120E030E046E954E40E94890F1816F5
:100FE0000CF4BFC340922F02509230026092310243
:100FF0007092320220E030E046E954E4609133021E
:101000007091340280913502909136020E942F0E29
:101010009B01AC0160E070E080E89FE30E94BD0DA1
:1010200020E030E048EC52E40E948E0F2B013C019E
:1010300020E030E0A9010E942A0E87FD9FC3409264
:101040000C0150920D0160920E0170920F0120E090
:1010500030E046E954E460912F02709130028091B3
:101060003102909132020E942F0E9B01AC0160E090
:1010700070E080E89FE30E94BD0D20E030E048EC86
:1010800052E40E948E0F2B013C0120E030E0A901C8
:101090000E942A0E87FD7BC34092080150920901ED
:1010A00060920A0170920B0160E080E00E9473047C
:1010B00082E591E00E942C0341E050E0C501B401BB
:1010C0000E94B50486E591E00E942C0360E088E070
:1010D0000E9473048BE791E00E942C0360910C0145
:1010E00070910D0180910E0190910F0141E050E04F
:1010F0000E94B50489E591E00E942C0361E080E044
:101100000E9473048BE591E00E942C0341E050E0C3
:101110006B817C818D819E810E94B50486E591E082
:101120000E942C0361E088E00E94730487E891E04C
:101130000E942C03609108017091090180910A01BD
:1011400090910B0141E050E00E94B50489E591E0E7
:101150000E942C0360ED77E080E090E00E94A50201
:1011600080912B0290912C02A0912D02B0912E0221
:10117000A7019601281B390B4A0B5B0BDA01C90149
:1011800080369A4EA105B10508F459C0C0922B02D1
:10119000D0922C02E0922D02F0922E0280E10E9469
:1011A0006E02BC01990F880B990B0E94D90E20E0AA
:1011B00030E048EC5CE30E948E0F6B017C0126E678
:1011C00036E646E850E40E94890F87FDE9C280E0D8
:1011D00090E0A8ECB2E48093040190930501A09301
:1011E0000601B09307010E94CA0360E080E00E94FC
:1011F00073048FE591E00E942C0342E050E0C701A8
:10120000B6010E94B50489E691E00E942C0361E0DA
:1012100080E00E9473048BE791E00E942C036091B0
:10122000040170910501809106019091070141E050
:1012300050E00E94B50489E591E00E942C03809162
:10124000270290912802A0912902B0912A022F81B1
:10125000388549855A85281B390B4A0B5B0BDA0107
:10126000C90180369A4EA105B10508F45DC08F8191
:101270009885A985BA858093270290932802A09328
:101280002902B0932A0281E10E946E02BC01990FEB
:10129000880B990B0E94D90E20E030E048EC5CE30B
:1012A0000E948E0F6B017C0126E636E646E850E48C
:1012B0000E94890F87FD0DC380E090E0A8ECB2E4A6
:1012C0008093000190930101A0930201B093030168
:1012D0000E94CA0360E080E00E9473048BE691E004
:1012E0000E942C0342E050E0C701B6010E94B50401
:1012F00089E691E00E942C0361E080E00E94730483
:1013000087E891E00E942C03609100017091010137
:10131000809102019091030141E050E00E94B504E8
:1013200089E591E00E942C03209104013091050190
:10133000409106015091070160910C0170910D01DF
:1013400080910E0190910F010E94BE0D20E030E0CF
:1013500040E05FE30E948E0F4B015C012091000191
:101360003091010140910201509103016091080107
:101370007091090180910A0190910B010E94BE0DAC
:1013800020E030E040E05FE30E948E0F6B017C01C3
:101390000E94CA0360E080E00E94730485E791E048
:1013A0000E942C0341E050E0C501B4010E94B50445
:1013B00089E591E00E942C0361E080E00E947304C3
:1013C00081E891E00E942C0341E050E0C701B601A2
:1013D0000E94B50489E591E00E942C038EE00E94F2
:1013E0006E029C838B838FE00E946E020B811C81B6
:1013F000081B190B17FF03C01195019511092B80CC
:101400003C80280E391E37FE03C0AFEF2A1A3A0A75
:10141000359427942B813C812817390751F00130EE
:10142000110509F4EFC249815A814130510509F48F
:10143000E9C254E02516310408F0F7C2F101EC5E70
:10144000FE4F8081A82F0A2E000CBB0BBC83AB8300
:101450001A8219828B819C819093260280932502A7
:101460002FEF30E0DC010E94001024E630E040E085
:1014700050E00E946D0DB90184E00E9411022EEF30
:1014800031E0AB81BC810E94001024E630E040E0F6
:1014900050E00E946D0DCA01B9016F5F71098109A9
:1014A00091090E94D90E20E030E04FE753E40E94FA
:1014B0002F0E609321027093220280932302909357
:1014C000240220E030E040E85FE30E94BE0D20E00F
:1014D00030E04EEF52E40E948E0F0E94A10E2B01CD
:1014E00086E00E9411025C824B8257FE05C0920189
:1014F0002D5F3F4F3C832B834B815C8155954795F6
:10150000559547955C834B830E94CA0360E080E059
:101510000E9473048DE891E00E942C0361E070E06A
:1015200080912502909126020E94880489E591E02D
:101530000E942C0361E080E00E94730483E991E043
:101540000E942C036AE070E0C2010E9488046CEDE6
:1015500075E080E090E00E94A50261E080E00E94DA
:10156000730488E991E00E942C036AE070E0C801EE
:101570000E94880461E088E00E94730480EA91E0A0
:101580000E942C036AE070E0C1010E9488046CEDA7
:1015900075E080E090E00E94A5020E94CA0360E02E
:1015A00080E00E94730485EA91E00E942C0361E0D0
:1015B00070E080912502909126020E94880461E0EB
:1015C00080E00E94730482EB91E00E942C03609102
:1015D000210270912202809123029091240241E025
:1015E00050E00E94B5046CED75E080E090E00E9450
:1015F000A5020E94CA0360E080E00E94730481ECAF
:1016000091E00E942C0350E040E060E070E08AEF3F
:1016100093E40E94B5048BEC91E00E942C0361E0FE
:1016200080E00E9473048EEC91E00E942C0361E044
:1016300070E0C2010E9488046CED75E080E090E0EB
:101640000E94A5020E94CA0360E080E00E94730429
:101650008BE791E00E942C0341E050E0C501B4010A
:101660000E94B50460E088E00E94730486E891E07F
:101670000E942C0342E050E0C701B6010E94B5046D
:1016800061E080E00E94730489ED91E00E942C03E8
:101690006AE070E08B819C810E948804A70196011A
:1016A000C501B4010E94890F6B817C8118160CF46E
:1016B000CCC1A7019601C501B4010E942A0E70E0B9
:1016C00060E087FFC2C183E00E9411026B817C81D0
:1016D00085E00E94110220E030E048EC52E4C501B0
:1016E000B4010E942A0E20E030E048EC52E481115F
:1016F000B2C1C701B6010E942A0E8111E3C10E9446
:10170000CA0360E080E00E94730485EE91E00E94CD
:101710002C0361E080E00E94730481EF91E00E945D
:101720002C0368EE73E080E090E00E94A50280E068
:1017300090E0892B09F48DCB0E94F100882309F4F5
:1017400088CB0E94000085CB80E090E0A6E9B4E45D
:101750008093330290933402A0933502B093360203
:1017600022CC80E090E0A6E9B4E480932F0290932D
:101770003002A0933102B09332023CCC10920C01A3
:1017800010920D0110920E0110920F0160CC109278
:1017900008011092090110920A0110920B0184CCE9
:1017A00020E030E040E850E4C701B6010E94890F14
:1017B00087FD2DC026E636E646E850E4C701B601AF
:1017C0000E942A0E87FF23C020E030E040E850E46A
:1017D000C701B6010E94BD0D20E030E040EA51E4AF
:1017E0000E948E0F2DEC3CEC4CE45EE30E942F0E29
:1017F00020E030E040EA52E40E94BE0D6093040114
:10180000709305018093060190930701ECCC2DECB9
:101810003CEC4CE650E4C701B6010E94890F87FDFD
:1018200023C020E030E040E850E4C701B6010E9448
:101830002A0E87FF19C02DEC3CEC4CE650E4C701A2
:10184000B6010E94BD0D20E030E040E752E40E9466
:101850008E0F2DEC3CEC4CEC5DE30E942F0E20E053
:1018600030E040EA51E4C8CF26E636E646E650E4EA
:10187000C701B6010E94890F87FD22C02DEC3CEC08
:101880004CE650E4C701B6010E942A0E87FF18C03B
:1018900026E636E646E650E4C701B6010E94BD0DD5
:1018A00020E030E040EA51E40E948E0F2DEC3CEC49
:1018B0004CEC5DE30E942F0E20E030E0A9019CCFAC
:1018C0001092040110920501109206011092070176
:1018D0008ACC20E030E040E850E4C701B6010E9425
:1018E000890F87FD2DC026E636E646E850E4C7019D
:1018F000B6010E942A0E87FF23C020E030E040E8B6
:1019000050E4C701B6010E94BD0D20E030E040EA7E
:1019100051E40E948E0F2DEC3CEC4CE45EE30E94FF
:101920002F0E20E030E040EA52E40E94BE0D6093AA
:101930000001709301018093020190930301C8CCD0
:101940002DEC3CEC4CE650E4C701B6010E94890F37
:1019500087FD23C020E030E040E850E4C701B60135
:101960000E942A0E87FF19C02DEC3CEC4CE650E497
:10197000C701B6010E94BD0D20E030E040E752E40F
:101980000E948E0F2DEC3CEC4CEC5DE30E942F0E80
:1019900020E030E040EA51E4C8CF26E636E646E6ED
:1019A00050E4C701B6010E94890F87FD22C02DECCB
:1019B0003CEC4CE650E4C701B6010E942A0E87FFBA
:1019C00018C026E636E646E650E4C701B6010E9496
:1019D000BD0D20E030E040EA51E40E948E0F2DEC76
:1019E0003CEC4CEC5DE30E942F0E20E030E0A901BE
:1019F0009CCF1092000110920101109202011092EE
:101A0000030166CCB4E02B163104B0F4F101E05FC1
:101A1000FE4F2081422F042E000C550B5C834B831C
:101A200081E090E09A83898315CD1A821982A6E419
:101A3000B0E0BC83AB830ECD21E030E03A83298354
:101A400046E450E05C834B8305CD83E00E941102A5
:101A500070E060E03DCEC501B4010E942A0E87FD12
:101A60000AC020E030E048EC52E4C701B6010E9411
:101A70002A0E87FF05C00E94CA0389EF91E04FCE6E
:101A8000A7019601C501B4010E942A0E811149CE19
:101A900020E030E048EC52E4C501B4010E942A0E77
:101AA00081110BC020E030E048EC52E4C701B601E0
:101AB0000E942A0E882309F434CE0E94CA0389E0CA
:101AC00092E02DCE20E030E048EC52E4C701B601B0
:101AD0000E942A0E87FDCFCF24CE052E97FB1EF441
:101AE00000940E94840D57FD07D00E948C0D07FCC6
:101AF00003D04EF40C94840D50954095309521956B
:101B00003F4F4F4F5F4F0895909580957095619529
:101B10007F4F8F4F9F4F0895A1E21A2EAA1BBB1B28
:101B2000FD010DC0AA1FBB1FEE1FFF1FA217B307A9
:101B3000E407F50720F0A21BB30BE40BF50B661FBF
:101B4000771F881F991F1A9469F760957095809583
:101B500090959B01AC01BD01CF010895A29FB001FA
:101B6000B39FC001A39F700D811D1124911DB29FD1
:101B7000700D811D1124911D08955058BB27AA276F
:101B80000E94D50D0C944F0F0E94410F38F00E9417
:101B9000480F20F039F49F3F19F426F40C943E0FBF
:101BA0000EF4E095E7FB0C94380FE92F0E94600FCC
:101BB00058F3BA17620773078407950720F079F482
:101BC000A6F50C94820F0EF4E0950B2EBA2FA02DE3
:101BD0000B01B90190010C01CA01A0011124FF27DA
:101BE000591B99F0593F50F4503E68F11A16F040D5
:101BF000A22F232F342F4427585FF3CF46953795D4
:101C00002795A795F0405395C9F77EF41F16BA0B98
:101C1000620B730B840BBAF09150A1F0FF0FBB1F46
:101C2000661F771F881FC2F70EC0BA0F621F731F8F
:101C3000841F48F4879577956795B795F7959E3FEC
:101C400008F0B0CF9395880F08F09927EE0F97957D
:101C5000879508950E94140F08F481E008950E946A
:101C6000430E0C944F0F0E94480F58F00E94410FF2
:101C700040F029F45F3F29F00C94380F51110C9477
:101C8000830F0C943E0F0E94600F68F39923B1F309
:101C9000552391F3951B550BBB27AA276217730792
:101CA000840738F09F5F5F4F220F331F441FAA1F26
:101CB000A9F335D00E2E3AF0E0E832D091505040E2
:101CC000E695001CCAF72BD0FE2F29D0660F771F90
:101CD000881FBB1F261737074807AB07B0E809F076
:101CE000BB0B802DBF01FF2793585F4F3AF09E3FFB
:101CF000510578F00C94380F0C94830F5F3FE4F398
:101D0000983ED4F3869577956795B795F7959F5F3D
:101D1000C9F7880F911D9695879597F90895E1E089
:101D2000660F771F881FBB1F621773078407BA07E8
:101D300020F0621B730B840BBA0BEE1F88F7E09543
:101D400008950E94A80E6894B1110C94830F089511
:101D50000E94680F88F09F5798F0B92F9927B751C4
:101D6000B0F0E1F0660F771F881F991F1AF0BA953F
:101D7000C9F714C0B13091F00E94820FB1E008950C
:101D80000C94820F672F782F8827B85F39F0B93FFE
:101D9000CCF3869577956795B395D9F73EF49095F2
:101DA0008095709561957F4F8F4F9F4F0895E89470
:101DB00009C097FB3EF490958095709561957F4F93
:101DC0008F4F9F4F9923A9F0F92F96E9BB27939541
:101DD000F695879577956795B795F111F8CFFAF451
:101DE000BB0F11F460FF1BC06F5F7F4F8F4F9F4F82
:101DF00016C0882311F096E911C0772321F09EE8E0
:101E0000872F762F05C0662371F096E8862F70E045
:101E100060E02AF09A95660F771F881FDAF7880F1F
:101E20009695879597F90895990F0008550FAA0B75
:101E3000E0E8FEEF16161706E807F907C0F01216DD
:101E40001306E407F50798F0621B730B840B950BE0
:101E500039F40A2661F0232B242B252B21F4089535
:101E60000A2609F4A140A6958FEF811D811D0895D2
:101E700097F99F6780E870E060E008959FEF80EC3D
:101E8000089500240A9416161706180609060895E0
:101E900000240A9412161306140605060895092E46
:101EA0000394000C11F4882352F0BB0F40F4BF2BB5
:101EB00011F460FF04C06F5F7F4F8F4F9F4F0895F5
:101EC00057FD9058440F551F59F05F3F71F04795EB
:101ED000880F97FB991F61F09F3F79F087950895D0
:101EE000121613061406551FF2CF4695F1DF08C0EF
:101EF000161617061806991FF1CF8695710561050C
:101F000008940895E894BB2766277727CB0197F9B3
:101F100008950E94140F08F48FEF08950E94A10FF6
:101F20000C944F0F0E94410F38F00E94480F20F090
:101F3000952311F00C94380F0C943E0F11240C943F
:101F4000830F0E94600F70F3959FC1F3950F50E0CF
:101F5000551F629FF001729FBB27F00DB11D639F5B
:101F6000AA27F00DB11DAA1F649F6627B00DA11D01
:101F7000661F829F2227B00DA11D621F739FB00DA7
:101F8000A11D621F839FA00D611D221F749F332717
:101F9000A00D611D231F849F600D211D822F762FB0
:101FA0006A2F11249F5750409AF0F1F088234AF08D
:101FB000EE0FFF1FBB1F661F771F881F91505040F9
:101FC000A9F79E3F510580F00C94380F0C94830FB5
:101FD0005F3FE4F3983ED4F3869577956795B79580
:101FE000F795E7959F5FC1F7FE2B880F911D96959A
:101FF000879597F908950E94140F880B990B0895FF
:102000000E94AE0DB7FF0895821B930B0895EE0F4B
:10201000FF1F0590F491E02D0994F894FFCF000084
:10202000C8420000C8420000C8420000C842141E56
:10203000283C0A14283C0000000027018700B40057
:102040007401E500C300D70000000000820487008F
:10205000D802D7026E616E00696E66006F76660008
:10206000496E697469616C697A696E672E2E2E00FB
:1020700049313A00412000250049323A00566F6C40
:1020800074616765313A005600566F6C746167651C
:10209000323A0046696E616C20534F43313A004634
:1020A000696E616C20534F43323A00447574793A3B
:1020B0000050574D3A00534F432044463A00415692
:1020C000473A0044757479204379636C653A3A0065
:1020D0004E6F726D616C697A65642044433A0050BA
:1020E000574D20467265713A00487A0050574D208E
:1020F00056616C75653A0050574D205369676E61A3
:102100006C3A0043656C6C732066756C6C79206367
:102110006861726765640042616C616E63696E67D5
:102120002063656C6C730043656C6C732062616C3A
:06213000616E63656400AE
:107E0000112484B714BE81FFF0D085E080938100F7
:107E100082E08093C00088E18093C10086E0809377
:107E2000C20080E18093C4008EE0C9D0259A86E02C
:107E300020E33CEF91E0309385002093840096BBD3
:107E4000B09BFECF1D9AA8958150A9F7CC24DD24C4
:107E500088248394B5E0AB2EA1E19A2EF3E0BF2EE7
:107E6000A2D0813461F49FD0082FAFD0023811F036
:107E7000013811F484E001C083E08DD089C08234E0
:107E800011F484E103C0853419F485E0A6D080C0E4
:107E9000853579F488D0E82EFF2485D0082F10E0AE
:107EA000102F00270E291F29000F111F8ED06801E7
:107EB0006FC0863521F484E090D080E0DECF843638
:107EC00009F040C070D06FD0082F6DD080E0C81688
:107ED00080E7D80618F4F601B7BEE895C0E0D1E017
:107EE00062D089930C17E1F7F0E0CF16F0E7DF06D8
:107EF00018F0F601B7BEE89568D007B600FCFDCFD4
:107F0000A601A0E0B1E02C9130E011968C91119780
:107F100090E0982F8827822B932B1296FA010C0160
:107F200087BEE89511244E5F5F4FF1E0A038BF0790
:107F300051F7F601A7BEE89507B600FCFDCF97BE46
:107F4000E89526C08437B1F42ED02DD0F82E2BD052
:107F50003CD0F601EF2C8F010F5F1F4F84911BD097
:107F6000EA94F801C1F70894C11CD11CFA94CF0C13
:107F7000D11C0EC0853739F428D08EE10CD085E9AC
:107F80000AD08FE07ACF813511F488E018D01DD067
:107F900080E101D065CF982F8091C00085FFFCCF94
:107FA0009093C60008958091C00087FFFCCF809118
:107FB000C00084FD01C0A8958091C6000895E0E648
:107FC000F0E098E1908380830895EDDF803219F02E
:107FD00088E0F5DFFFCF84E1DECF1F93182FE3DFCA
:107FE0001150E9F7F2DF1F91089580E0E8DFEE27F6
:047FF000FF270994CA
:027FFE00040479
:00000001FF
